:100000000C946D000C9495000C9495000C94950044
:100010000C9495000C9495000C9495000C94421E41
:100020000C9495000C9495000C9495000C949500FC
:100030000C9495000C9495000C9495000C949500EC
:100040000C9425170C9495000C9425160C94FF1510
:100050000C9495000C9495000C9495000C949500CC
:100060000C9495000C949500CB20D120F620FC2018
:100070003421D7214F24B411CC1144123613561316
:1000800076137E132B1300000000240027002A00A3
:1000900000000000250028002B00040404040404D0
:1000A0000404020202020202030303030303010227
:1000B00004081020408001020408102001020408F6
:1000C00010200000000800020100000304070000E7
:1000D0000000000000000200622611241FBECFEFC6
:1000E000D8E0DEBFCDBF12E0A0E0B1E0E8E1F3E58B
:1000F00002C005900D92A233B107D9F726E0A2E322
:10010000B2E001C01D92A43DB207E1F710E0CDE6D8
:10011000D0E004C02197FE010E945A27CC36D107B7
:10012000C9F70E94611F0C948A290C940000CF9398
:10013000DF931F92CDB7DEB7DC01ED91FC91048C0B
:10014000F58DE02D41E050E0BE016F5F7F4F0995D6
:10015000181619061CF4898190E002C08FEF9FEFFA
:100160000F90DF91CF910895CF93DF931F92CDB77A
:10017000DEB76983DC01ED91FC910280F381E02D13
:1001800041E050E0BE016F5F7F4F09950F90DF9116
:10019000CF91089580E00895FB0141505109460F29
:1001A000571FE417F50778F4208130E0322F22271B
:1001B0006181260F311D820F931F8217930708F468
:1001C00001963296EECFE417F50751F4208130E026
:1001D000322F2227820F931F8217930708F401966C
:1001E0000895DC01ED91FC91048CF58DE02D0994CE
:1001F000089580E090E00895CF93DF93FC01818122
:10020000813221F0319681E090E003C0329680E0A7
:1002100090E0AC0121E0422720812D3591F022238E
:1002200081F0A181EB013881AD3239F432171CF035
:10023000228123173CF43396EFCF231719F0319620
:10024000EBCFCA01DF91CF910895CF93DF93EC01FB
:100250008A89882369F09A01AB016E857F850E94A7
:10026000A0192E853F85280F391F3F872E8702C092
:1002700080E090E0DF91CF910895CF93DF93EC0180
:100280008C859D85892B19F480E090E024C0EA8953
:10029000EE23D1F381E08B8B8E859F8525E0E29F55
:1002A000F0011124EB5DFB4F938382838C859D8548
:1002B000909385028093840285E00E941D0D8091B9
:1002C0009A0290919B02892BF9F2CE010E960E9420
:1002D000981481E090E0DF91CF9108950F931F93E0
:1002E000CF93DF93EC018B018C859D85892B41F4A5
:1002F00060E070E080E090E00E9425149D878C878C
:10030000EC85FD85309751F01027012710271583C4
:1003100004832E96D287C18781E001C080E0DF91FF
:10032000CF911F910F910895CF93DF93DC011C961D
:10033000ED91FC911D973097B1F0EC01158214827C
:10034000128611861D861C8689890E946F178889EE
:100350000E946F178A890E946F172E9686E0FE0111
:1003600011928A95E9F7DF91CF910895EF92FF926C
:100370000F931F93CF93DF937B010196FC012081A4
:100380002D37E1F02223D1F02F32C1F08F012191DE
:100390002D3759F4E801C81BD90BAE01B7010E94F3
:1003A0007C29892B49F0C801E8CF222399F32F3209
:1003B00089F32C3259F7EECFCE0102C080E090E0F5
:1003C000DF91CF911F910F91FF90EF900895FC0165
:1003D0001382128288EE93E0A0E0B0E084839583DC
:1003E000A683B78382E191E091838083158614868A
:1003F0003E9686E0DF011D928A95E9F70895EF9217
:10040000FF920F931F93CF93DF93C82FE090AF021B
:10041000F12C84E1E81AF1082091AE0230E0322F8D
:100420002227E20EF31E48E050E068EB72E0C701BD
:100430008C0F911D0E94CC00C13131F0C091CC02D3
:10044000C695C695CC7301C0C8E0D0E0AE0160ECA3
:1004500072E00E94CC008C01CE15DF0508F04CC084
:10046000A7014C1B5D0BBE016E5D7F4F8091830227
:100470000E94E719EC01219760E08AE00E9457167C
:100480008AE38EBD0DB407FEFDCFA80160E070E0E9
:100490006C177D07C8F41EBC0DB407FEFDCF2EB54A
:1004A00030E0322F22271EBC0DB407FEFDCF8EB5E3
:1004B000280F311D420F531F4217530710F44F5F8F
:1004C0005F4F6E5F7F4FE4CF8A016C177D0781F429
:1004D0001EBC0DB407FEFDCF8EB590E0982F882787
:1004E0008A01080F191F0817190710F40F5F1F4F13
:1004F00061E08AE00E9457160115110519F0902F4E
:10050000812F02C08FEF9FEFDF91CF911F910F914D
:10051000FF90EF90089544E150E06CEA72E080E0D3
:1005200090E00E94CC00009721F098278927982717
:1005300008958FEF9FEF0895DF92EF92FF920F9350
:100540001F93CF93DF9390918202892F827091FF46
:1005500011C02091800230E04EE952E060E070E08E
:10056000809183020E94A019809182028D7F8093E6
:10057000820219C020919A0230919B022115310507
:1005800019F0C9010E94FC1880938302882309F4A2
:1005900076C020919A0230919B024EE952E060E0D1
:1005A00070E00E94A019E091830280912E058823BB
:1005B00009F45DC085E0E89FF0011124EB5DFB4F7D
:1005C000C081D1812197028113810C0F1D1FCE01A3
:1005D0000E948D18D82E882321F060E0CE010E9461
:1005E0007518BE0184E00E94F717B80186E00E94EA
:1005F000F7170AE010E040E86FE180E80E94B217C8
:1006000040E86FE180EA0E94B2174AE06CE180EABC
:100610000E94B21748E06FE180E80E94B21784E6BA
:10062000E82EF12C8CE10E9448188A7069F4E114DC
:10063000F10461F081E0E81AF1086AE070E080E01E
:1006400090E00E94DF16EECFEF2849F448E06FE11A
:1006500080EA0E94B2170150110969F608C0012B07
:1006600031F0DD2021F06D2DCE010E9475188091B2
:1006700083020E946F171092830281E001C080E024
:10068000DF91CF911F910F91FF90EF90DF90089530
:10069000CF92DF92EF92FF920F931F93CF93DF934E
:1006A00080912E05882309F40AC2D0918102D111CC
:1006B00060C089E30E94481890912E05992309F49F
:1006C00056C0882309F453C060912F0570913005FE
:1006D0008B010A5F1F4F011528E0120710F00F5F12
:1006E000174080E00E94F71760E08AE30E94261816
:1006F00090E09093300580932F0560E08AE30E949C
:10070000261820912F0530913005382B3093300575
:1007100020932F0560E08AE30E942618C82F60E02E
:100720008AE30E942618F82E60E08AE30E942618C9
:10073000E82E40E46EE180E80E94B217E7FE15C0A3
:1007400080912F05909130058115984070F4109399
:100750003205009331058C2F90E09F2904979093E8
:10076000340580933305DFEF02C00E943B1AD0931B
:100770008102C0918102CC2309F424C181E08093DD
:1007800082028C2F0E94221A90939B0280939A02DD
:10079000892B09F40BC142E650E060E070E08C2F39
:1007A0000E94E7196EE972E00E948F17C091AA02B9
:1007B000D091AB02C830D10509F044C080918102CC
:1007C0008093830280919A0290919B020E9790935E
:1007D0009B0280939A022091190330911A03809111
:1007E000B8029091B902822793272091110330918A
:1007F000120382239323892BC1F420911B03309190
:100800001C038091BA029091BB028227932720910A
:1008100013033091140382239323892B31F464EA68
:1008200072E088EB92E00E947F1B81E00E941D0D28
:1008300080919A0290919B02892B09F4B7C00E9483
:100840008B1AB2C0C83046E0D40709F0AFC080911F
:100850009A0290919B0210929B0210929A028A97A0
:1008600008F49CC08091B2029091B302811551E0CE
:10087000950729F08115924009F474C08FC020912A
:10088000C4023091C5028091190390911A03281770
:10089000390709F083C02091C6023091C7028091C8
:1008A0001B0390911C032817390709F077C064EBEC
:1008B00072E08AEB92E00E947F1B80E092E09093CE
:1008C000B3028093B20286E0E4EBF2E0AEEBB2E07A
:1008D00001900D928A95E1F786E0E6E3F5E0A4EB5E
:1008E000B2E001900D928A95E1F786E0E6E3F5E04B
:1008F000A4EAB2E001900D928A95E1F786E0EEEB72
:10090000F2E0AEE9B2E001900D928A95E1F78091B4
:10091000BA029091BB029093C5028093C402809169
:10092000BC029091BD029093C7028093C602809151
:10093000190390911A039093BB028093BA0280919D
:100940001B0390911C039093BD028093BC02D09333
:10095000AB02C093AA028AE290E090939B0280933C
:100960009A021CC02091C4023091C50280911903E3
:1009700090911A032817390789F42091C602309103
:10098000C70280911B0390911C032817390731F48B
:1009900064EB72E08AEB92E00E947F1B80919A02E6
:1009A00090919B02892B11F00E949C028091810200
:1009B000882341F08091820280FF04C00E943B1A8C
:1009C000109281020E9419176B017C0180913C05F5
:1009D00090913D05A0913E05B0913F05A70196017C
:1009E000281B390B4A0B5B0BDA01C90180959095E6
:1009F000A095B0958827B7FD83959927AA27BB278F
:100A0000C82F04EA13E01093880200938702CC23D6
:100A100011F082E017C00115110519F1D8015C969B
:100A2000ED91FC915D973097D1F085859685A785EE
:100A3000B089A7019601281B390B4A0B5B0B57FDA8
:100A400010C083E00E941D0D80919A0290919B023C
:100A5000892B39F00E948B1A0E949C0202C0F80177
:100A6000E4CF025E1F4F34E00C31130761F6CC2354
:100A700031F1D701C60186509F4FAF4FBF4F8093D2
:100A80003C0590933D05A0933E05B0933F05C6E716
:100A9000D3E0D0938502C093840285E00E941D0DAF
:100AA00080919A0290919B02892B21F089859A85E9
:100AB0000E9498142B9643E0C23AD40751F7DF9175
:100AC000CF911F910F91FF90EF90DF90CF900895FD
:100AD0000F931F93CF93DF931F92CDB7DEB78C0197
:100AE0000E944803F8018189882391F041E050E099
:100AF00060E070E00E94E7198C01BE016F5F7F4FDC
:100B00000E948F170130110519F4898190E002C00D
:100B10008FEF9FEF0F90DF91CF911F910F9108956D
:100B2000CF92DF92EF92FF920F931F93CF93DF93B9
:100B300000D0CDB7DEB77C016B0149835A830E9498
:100B40004803F701818949815A81882351F160E086
:100B500070E00E94E7198C01B6010E948F17F7011F
:100B6000D1888D2D0E94221A0817190731F48D2D76
:100B70000E946F17F701118A12C085E0D89EF0011C
:100B80001124EB5DFB4F80819181800F911F918338
:100B9000808382819381801B910B93838283C80120
:100BA00002C080E090E00F900F90DF91CF911F91F5
:100BB0000F91FF90EF90DF90CF900895CF93DF9348
:100BC000EC010E9448038989DF91CF910C94221A8D
:100BD000CF93DF93EC010E944803898981110E9421
:100BE0006F178889898B188ADF91CF910C94221A0C
:100BF000CF92DF92EF92FF920F931F93CF93DF93E9
:100C000000D000D0CDB7DEB78C016B017A010E9415
:100C10004803F60182819381A481B581892B8A2BB7
:100C20008B2B41F1E114F10429F1828190E0982F9E
:100C300088272381822B9827892798279A8389835D
:100C4000248130E0322F22274581242B322723278D
:100C500032273C832B83D8011C96ED91FC911D9784
:100C60007E2D6F2D309729F1778366839183808362
:100C700033832283D8011C968D919C911D97892BDB
:100C8000A9F052968C91811111C086E096E00E94E5
:100C9000FC18F801828B2AE230E03787268721E0B2
:100CA00090E0811101C020E0822F15C080E090E02B
:100CB00012C0CE0101960E942514D8011D969C9366
:100CC0008E931C97009791F39801225F3F4FFC0190
:100CD00032872187CFCF0F900F900F900F90DF9129
:100CE000CF911F910F91FF90EF90DF90CF900895DB
:100CF0004F925F926F927F928F929F92AF92BF922C
:100D0000CF92DF92EF92FF920F931F93CF93DF93D7
:100D1000CDB7DEB7E5970FB6F894DEBF0FBECDBFF7
:100D20007C018B016A0195E7A92E91E0B92EBA8268
:100D3000A9821B821C821D821E82CE0109960E94FE
:100D4000E701BAA6A9A61BA61CA61DA61EA68091F1
:100D5000280690912906A0912A06B0912B068F8F24
:100D600098A3A9A3BAA38B839C83AD83BE83188663
:100D70001F82F801D8018D91882331F08E32D9F38A
:100D800080538A30C0F34EC080E090E020E030E035
:100D90005AE04191442311F1243031050CF042C056
:100DA0004E3281F48F3F910509F0E4F5ABE2B0E0FB
:100DB000AC0FBD1FA20FB31F8C932F5F3F4F80E07E
:100DC00090E0E7CF589FB001599F700D1124842FF8
:100DD000440F990BC097860F971FDBCF8F3F91056C
:100DE00009F004F524303105ECF4FE01E20FF31FA5
:100DF00083A7D701ED91FC910488F589E02D85E763
:100E000091E09E8F8D8F8BA59CA5ADA5BEA58F8FE4
:100E100098A3A9A3BAA3A601BE01635E7F4FC70131
:100E2000099536C24B815C816D817E8180912E0651
:100E300090912F06A0913006B091310648175907BE
:100E40006A077B0709F422C20E9419176F7077277F
:100E50007C5FCE0109960E946E01813009F013C2B9
:100E600085E791E09E8F8D8F8B819C81AD81BE81C6
:100E70008F8F98A3A9A3BAA345E350E0BE01635E98
:100E80007F4FCE0109960E94F805892B19F400E0E6
:100E900010E0D7C10E94191778876F8342E050E0B5
:100EA000BE01695F7F4FCE0109960E94250181E056
:100EB00090E09E8F8D8F42E050E0BE01635E7F4FD9
:100EC000CE0109960E94250180E091E09E8F8D8FD2
:100ED00042E050E0BE01635E7F4FCE0109960E9462
:100EE00025011E8E1D8E42E050E0BE01635E7F4FE5
:100EF000CE0109960E94250142E050E0BE01635EEA
:100F00007F4FCE0109960E94250142E050E0BE01CC
:100F1000635E7F4FCE0109960E9425015801D501DD
:100F20008C91882319F1F8015F018191811117C01B
:100F30004501801A910A18141904A4F48FA641E0FF
:100F400050E0BE01615D7F4FCE0109960E942501F0
:100F5000A401B801CE0109960E94250103C08E327A
:100F600019F7E6CF85010F5F1F4FD9CF1FA641E0CC
:100F700050E0BE01615D7F4FCE0109960E942501C0
:100F800000E011E01E8F0D8F42E050E0BE01635E75
:100F90007F4FCE0109960E9425011E8F0D8F42E0E2
:100FA00050E0BE01635E7F4FCE0109960E9425018D
:100FB000CE0109960E943D01892B09F468CF83E098
:100FC000A82EB12C0E9419172B013C01CE010996C5
:100FD0000E94E80518161906ACF00E941917DC01EA
:100FE000CB0184199509A609B70989389341A10550
:100FF000B10508F015C162E370E080E090E00E9466
:10100000DF16E4CF4B805C806D807E80BE01675F21
:101010007F4FCE014D960E94850C8F8D98A1A9A17E
:10102000BAA1481659066A067B0609F0FCC0CE0133
:1010300009960E94750CC59709F0F5C0CE01099676
:101040000E94DE050C970CF4F1C04CE050E0BE01AC
:10105000635E7F4FCE0109960E94F1008F8D98A1AB
:101060009827892798279CAB8BAB4F8158852D8D6E
:101070003E8D4217530711F497FD07C0CE01099624
:101080000E94110D0CEF1FEFD3C08F709270892B4F
:1010900039F0CE0109960E94110D0BEF1FEFC8C069
:1010A0000BA11CA11027012710270115110539F4E8
:1010B000CE0109960E94110D0AEF1FEFB9C0812CD5
:1010C000912C89A19AA19827892798278816990693
:1010D00070F541E050E0BE01615D7F4FCE010996A1
:1010E0000E94F1008FA5811117C08FA58111F1CF4A
:1010F000CE0109960E949700CE0109960E949700A2
:10110000CE0109960E949700CE0109960E94970091
:10111000FFEF8F1A9F0AD5CF8FA59FEF980F9FA73C
:10112000882319F3CE0109960E949700F5CF812CF0
:10113000912C41E050E0BE016B5C7F4FCE010996DF
:101140000E94F1008DA9982F907C69F4882381F08A
:101150008DA99FEF980F9DAB882351F0CE01099682
:101160000E949700F5CFCE0109960E9497001DAA14
:101170008DA98111DECF42E050E0BE016F5C7F4F50
:10118000CE0109960E94F10042E050E0BE01615D8F
:101190007F4FCE0109960E94F100CE0109960E9470
:1011A0009700CE0109960E949700CE0109960E94F1
:1011B0009700CE0109960E94970042E050E0BE01E0
:1011C0006D5C7F4FCE0109960E94F10089A99AA912
:1011D0008115914029F48FA598A981159140D9F1E5
:1011E000612C712C8BA99CA99827892798276816B0
:1011F000790640F4CE0109960E949700BFEF6B1A62
:101200007B0AF0CFEFEF8E1A9E0A8016910609F046
:1012100090CFCE0109960E94110D06EF1FEF08C076
:101220000FEF1FEF05C00EEF1FEF02C00DEF1FEF16
:10123000F1E0AF1AB10829F00F3F2FEF120709F4C0
:10124000C1CECE0109960E9494010130110509F426
:10125000D0CDC8011DC08BA99CA98115944039F03F
:10126000CE0109960E94110D07EF1FEFE1CF44E078
:1012700050E0BE01655D7F4FCE0109960E94F100EE
:1012800001E010E0D5CF80E090E002C08EEF9FEF4C
:10129000E5960FB6F894DEBF0FBECDBFDF91CF91BC
:1012A0001F910F91FF90EF90DF90CF90BF90AF9084
:1012B0009F908F907F906F905F904F900895CF9206
:1012C000DF92EF92FF920F931F93CF93DF93A09142
:1012D0008702B09188025C96CD91DC915D97509128
:1012E0008602209749F556FF6FC0ECE3F2E080E0FC
:1012F00090E0208121111AC061E1689F9001699FEF
:10130000300D1124E901C45CDD4F80618883235CCA
:101310003D4F80E1F90111928A95E9F7209709F490
:1013200053C05D96DC93CE935C9706C00196719690
:1013300084309105F1F648C051FF07C080919A02B0
:1013400090919B02892B09F055C0888187FF0EC0C0
:101350008F77888380918602826080938602E091F5
:101360008702F0918802818D8F7E818F8091860225
:10137000982F9071D92E84FF80C07E01E6E0EE0E9A
:10138000F11C6E01FBE0CF0ED11CF70180810E94A1
:101390006F17F70111927F01EC15FD05B1F78981F7
:1013A000882309F46DC0E0918702F091880284815E
:1013B00095819F838E83888180648883E0918702F2
:1013C000F0918802158E148EE12CF12CB7018091DA
:1013D0009C0290919D020E94E81BF0929B02E09279
:1013E0009A02DF91CF911F910F91FF90EF90DF90C4
:1013F000CF9008958881807609F0A7CF6E01FFEF26
:10140000CF1ADF0AF12CF6018081811122C02091D0
:101410009A0230919B022115310519F0C9010E94F1
:10142000FC18F60180838823A1F000919A021091A4
:101430009B0220919C0230919D022E593240409196
:10144000810260E070E00E94541AF4E0FF127DCF48
:101450000CC0F3942FEFC21AD20A35E0F312D3CFA7
:10146000809182028E7F80938202E0918702F091C8
:101470008802818D8061818F68CF87FF03C07DCF17
:1014800018829CCF80FF0FC08E810E946F17DE01F3
:101490001796FE013696CE010A962D912193E817F4
:1014A000F907D9F71A86809186028C7009F443C037
:1014B000EE81EE2309F43FC08F8181110FC0EB84D0
:1014C000FC84E114F10409F481CF25E0E29FF001EE
:1014D0001124EB5DFB4FF382E28207C08E2F0E9446
:1014E000221A7C01892B09F471CF80919C02909182
:1014F0009D028E59924080938002F701E80FF11D02
:10150000CF01EF2B19F00E94FC18D82ED092830245
:10151000DD2009F45BCF6091800270E0870120E05C
:1015200030E04E818D2D0E94541A8091820282609B
:10153000809382024BCF888185FF46CF8E818111B7
:101540000BC01882E0918702F0918802158E148EEC
:1015500080E18093860238CFE0918702F091880283
:10156000818D8061818F30CFCF93DF9300D000D009
:10157000CDB7DEB7DC011496FE013196CE0105969B
:10158000E817F90719F02E912193FACF69817A8132
:101590008B819C810F900F900F900F90DF91CF91D6
:1015A0000895CF93DF93EC0160E170E08A859B851D
:1015B0000E948D289B878A87892B29F080E190E003
:1015C0009F878E8706C083E090E09F838E831B8673
:1015D0001A861D861C86DF91CF910895FC018481B7
:1015E00095816817790754F4660F771F0280F3819D
:1015F000E02DE60FF71F80819181089584E090E04F
:101600009783868380E090E00895EF92FF920F9396
:101610001F93CF937C01C1E0FC0186819781892BC8
:1016200009F4C0E000E010E0F7018481958108171B
:1016300019077CF4B801C7010E94EE0AFC0191E091
:1016400020813181232B09F490E0C92B0F5F1F4FBC
:10165000EBCF8C2FCF911F910F91FF90EF900895BA
:10166000FC01828193811816190664F484819581A6
:101670008337910521F4868197810C94F527823672
:101680009105C9F308954F925F926F927F92AF9246
:10169000BF92CF92DF92EF92FF920F931F93CF935F
:1016A000DF93CDB7DEB728970FB6F894DEBF0FBE35
:1016B000CDBFFC011182108282E690E09583848385
:1016C000CA010496938382838A01052E000C220BA3
:1016D000330B0D831E832F8338878E010B5F1F4FC3
:1016E0009E01275F3F4FDE0111966D01A017B107E4
:1016F00031F0D901FE909D01D601FD92F6CF4980CF
:101700005A806B807C804D825E826F82788618164C
:101710001906E4F47A015B018F010E9460276C01D5
:10172000009731F483E090E0F8019183808310C04A
:10173000DC014D925D926D927D92CD01A701B501C4
:101740000E945C29F801D782C68202C017821682E5
:1017500028960FB6F894DEBF0FBECDBFDF91CF91B4
:101760001F910F91FF90EF90DF90CF90BF90AF90BF
:101770007F906F905F904F900895EF92FF920F933C
:101780001F93CF93DF9300D0CDB7DEB77C01FC0170
:101790001182108283E790E095838483FB0101909E
:1017A0000020E9F7CF01861B970BF7019383828313
:1017B00069837A830E9460278C0169817A8100970E
:1017C00031F483E090E0F7019183808305C00E94AB
:1017D0007529F701178306830F900F90DF91CF9142
:1017E0001F910F91FF90EF900895FC0120812D35FE
:1017F00059F02CF42F3301F12B3561F015C02B3744
:1018000089F02D3749F010C0FC0120812B3511F0F3
:101810000197FACF0C94FC00FC0120812B3711F0CA
:101820000197FACF0C94B60181E090E0FB01308182
:10183000231721F080E0089581E090E00895EF9271
:10184000FF920F931F93CF93DF931F92CDB7DEB715
:101850007C018B01B801F80181918F018F3229F44D
:10186000F70180818F3221F436C0811110C0F8CF8A
:10187000882389F18A3261F5F70181818F3259F12C
:1018800031E020E0811130E0832F922F26C0F70154
:101890002081C7012A3231F401960E941F0C892B46
:1018A000C9F219C029830E94F50B29810097A9F07C
:1018B0002F7D2B3549F4970179012F5F3F4FF701B9
:1018C00080818F7D8D35C1F7FFEFEF1AFF0AC2CF00
:1018D00080E090E002C081E090E00F90DF91CF9136
:1018E0001F910F91FF90EF900895DC011C96ED91F0
:1018F000FC911D97309731F0868197819827892731
:101900009827089580E090E00895CF93DF93FC013D
:10191000EB01AC85BD85109791F012969C911297C2
:1019200013968C9113973C9111962C9145E751E0B9
:1019300051834083328323839483858308C085E762
:1019400091E0918380831282138214821582CF01E9
:10195000DF91CF910895EF92FF920F931F93CF9352
:10196000DF93E0918402F0918502C185D2852097B2
:1019700009F450C0E0908602E1FE31C0FA80F11017
:101980002EC08091C0029091C1029783868380917E
:10199000B8029091B902918380838091BA029091AC
:1019A000BB02938382838091C4029091C5029827E1
:1019B00089279827089719F00E94FC18F82EFA82B8
:1019C000FF2069F08F2D0E94221A8C012AE230E05C
:1019D0004091810260E070E08F2D0E94541AE3FE76
:1019E00019C08D818823B1F08C81809383028AE2B3
:1019F00080938002688179816A52710980919C028A
:101A000090919D02DF91CF911F910F91FF90EF90E8
:101A10000C94E81BDF91CF911F910F91FF90EF90F5
:101A20000895CF93DF93EC010E94480389890E94B7
:101A30006F17198ADF91CF910895EF92FF921F934C
:101A4000CF93DF93C0918702D0918802843009F44C
:101A5000ECC124ED32E030939D0220939C02309340
:101A6000970220939602833059F4898D8F708330CA
:101A700009F0DFC688899989892B09F0DAC67EC00A
:101A8000823009F07FC0809195028F5F809395022C
:101A9000811113C0809194028F5F80939402811111
:101AA0000CC0809193028F5F80939302811105C0D7
:101AB000809192028F5F8093920210929B0210920B
:101AC0009A021092990210929802898D982F9D7F08
:101AD000953041F48A8D8F5F8A8F883709F0A9C6C7
:101AE000198EA7C6882309F4A4C628893989232B0F
:101AF00009F440C09A8D2FEF290F2A8F911199C6B2
:101B00009B8D983031F02FEF280F223048F495301C
:101B100039F4198E80E8809386020E945F0942C5DD
:101B2000953038F423E0092E01C0220F0A94EAF719
:101B300001C020E32A8F9F5F9B8F8F708330A1F0BD
:101B400048F4813009F45AC3823009F072C6109209
:101B5000CD0257C3863009F4C1C4883009F4BEC42D
:101B6000843009F066C6BAC484E0809386020E947D
:101B70005F094AC58F70833009F05BC688E08093A7
:101B8000860205C5853019F5E0918402F091850241
:101B900084819581892B09F44CC610928802109299
:101BA000870288EC92E090939D0280939C02909330
:101BB00097028093960210929902109298021092C6
:101BC0009B0210929A0288E0809386022CC1809139
:101BD000AC02853409F02DC6C091AE02D0E0DC2FF6
:101BE000CC278091AF02C80FD11D80919A029091AD
:101BF0009B028C179D0708F41CC6D0939B02C093D0
:101C00009A028091B2028F7309F013C61091B30249
:101C100011110FC6E0901903F0901A03E114F104BA
:101C200039F480911B0390911C03892B09F442C065
:101C30008091B5022091BC023091BD02813151F5F5
:101C40002F3F4FEF340739F48091BE029091BF02CD
:101C5000019609F471C0809111039091120380954F
:101C600090958E299F2928173907A1F48091130395
:101C7000909114038095909540911B0350911C0303
:101C8000842B952B4091BE025091BF0248175907F3
:101C900009F452C02E153F0509F0CBC52091BE02B4
:101CA0003091BF0280911B0390911C0328173907C4
:101CB00009F0BFC50E948B02019609F0BAC5809158
:101CC000B502863009F415C18131B1F1813009F0D6
:101CD000B0C58091C002883009F0ABC51092C00237
:101CE0008091C2029091C302873FCFEF9C0710F012
:101CF000099601C008969093C3028093C202809116
:101D0000B8029091B9029093BD028093BC02809179
:101D1000BA029091BB029093BF028093BE02F092F0
:101D2000B902E092B80280911B0390911C0390933A
:101D3000BB028093BA0281C56C97D0939B02C0937B
:101D40009A0288EC92E090939D0280939C0280918D
:101D5000C6029091C702892B99F42091C20230915A
:101D6000C3024091C0025091C1026091B8027091CB
:101D7000B902A091BA02B091BB02E6E7F3E00CC051
:101D800081E10E94FF01019609F053C5E6CF8481ED
:101D90009581009731F43B9683E0E23AF807B8F377
:101DA00024C028173907B9F786819781009719F061
:101DB0004817590781F780819181009729F4C281E2
:101DC000D381CD2B49F416C08F3FCFEF9C0721F470
:101DD000C281D381219671F068177907E1F682817B
:101DE0009381A817B907B9F605C0F0938502E0936F
:101DF00084021FC5F0938502E0938402109288024A
:101E00001092870282E08093860288EC92E09093A1
:101E10009D0280939C029093970280939602109269
:101E20009902109298020E94AB0C809198029091B6
:101E30009902009709F4FDC49C01245E3F4F309342
:101E40009B0220939A023093AE022093AF02E0915E
:101E50008402F091850220852093B40221E1209331
:101E6000B50208969827892798279093C5028093F2
:101E7000C4021092C7021092C60284819581909389
:101E8000C1028093C002868197819093C3028093A0
:101E9000C2028091190390911A039093B902809322
:101EA000B80280911B0390911C039093BB02809316
:101EB000BA02808191819093BD028093BC0282819D
:101EC00093819093BF028093BE0284ED92E0909341
:101ED0009D0280939C0281E10E94FF018095909574
:101EE000009711F48FEF9FEF9093C7028093C60283
:101EF0007DC486E00E94FF01019609F09AC42091FA
:101F0000C2023091C3028091C0029091C1026091DF
:101F1000B8027091B902E091BA02F091BB02C4EA32
:101F2000D3E0498D4423A9F0AC81BD812A173B073A
:101F300081F4AE81BF818A179B0759F4A881B981CA
:101F40006A177B0731F4AA81BB81EA17FB0709F402
:101F50006FC16E9644E0CC31D40719F78091CD0261
:101F60008F738230E1F4309391022093900280E0ED
:101F7000843099F0E82FF0E0EE0FFF1FE45EFB4F96
:101F8000408151818F5F2417350791F71092240407
:101F900080E0C0E0D0E09EE17CC08093240480918A
:101FA000CD0282FD46C484E18093CD0288E290E0B8
:101FB00090939B0280939A0280E58093CC023091AB
:101FC000C7028091CB028093C7022091C602809104
:101FD000CA028093C6022093CA029091C5028091E2
:101FE000C9028093C5029093C9028091C402809374
:101FF00024044091C8024093C4028093C8023F5F0A
:102000003093CB0231110DC02F5F2093CA022111F2
:1020100008C09F5F9093C902911103C08F5F8093A6
:10202000C8028091C0029091C10290939102809366
:1020300090022091C2023091C3023093C1022093DA
:10204000C0029093C3028093C2028091B802909123
:10205000B9029093BD028093BC028091BA02909124
:10206000BB029093BF028093BE02809119039091AE
:102070001A039093B9028093B80280911B03909148
:102080001C039093BB028093BA0294C3473099F02B
:102090008F5F8430F1F0282F30E0929FF001939F02
:1020A000F00D1124EC55FC4F418D4111EFCF809381
:1020B0002404EF0110C0209721F0528D4A8D45175E
:1020C00038F7929FE001939FD00D1124CC55DC4F3F
:1020D000DFCF80932404209709F4ABC3D093880208
:1020E000C093870283E08A8F888F1E8A84E08F8B5B
:1020F0001B8E8091C2029091C3029D838C8380913C
:10210000C0029091C1029F838E838091B80290910A
:10211000B902998388838091BA029091BB029B8314
:102120008A8381E0898F809192028C8780919302CB
:102130008D87809194028E87809195028F8781E0B0
:1021400090E0998B888B8091C7028B878091C60223
:102150008A878091C50289878091C402888781E03F
:1021600090E00E944A268091CC02982F907F913572
:1021700008F444C082958F7090E00597880F991FEE
:10218000880F991F20918F02E12FF0E0E817F907DF
:102190008CF5E256FD4F26A9211105C010932404A9
:1021A00010928F022BC0213011F41F5FEDCF22302F
:1021B000E1F437A93430C9F41093240420938F023A
:1021C00080AD90E0982F882721AD822B90939102CB
:1021D00080939002813062E0960710F080E092E0F8
:1021E0009B8B8A8B9D8B8C8B09C037A9332311F075
:1021F000130FCACF1093240420938F0280E18093A1
:10220000CD028091CD0282608093CD0282E08093E6
:10221000D40294E09093D5028093D6021092D70214
:102220008CE290E090939B0280939A0280E670C2C9
:10223000D0938802C0938702109286023091CD021B
:10224000132F147032FF03C0198E80E20AC220914E
:10225000CC0222952F70220F220F2093240480910C
:102260009A0290919B024497821B910990939B0242
:1022700080939A024F70423021F4232F2F73223122
:10228000C9F0892B19F4832F8370A1F09091C402B7
:102290008885981333C29091C502898598132EC200
:1022A0009091C6028A85981329C29091C7028B85A6
:1022B000981324C234FF49C0688979896115710572
:1022C00009F443C0CE010C960E9414263091C80236
:1022D00080918B02381339C02091C90280918C0201
:1022E000281333C09091CA0280918D0298132DC09B
:1022F0008091CB0240918E02841327C03C872D87AA
:102300009E878F878B8D811119C09E89888D2A8D1C
:10231000821B292F269526952695821B980F9E8B2A
:1023200087FD81952F89322F36953695231B820F95
:102330008F8B969596959695890F888F81E08093DF
:102340008602888D8A8F198A188A298DE22FEF706C
:102350008E2F90E0FC013197E830F10508F069C25A
:10236000E55CFF4F0C945A278091860280FF61C282
:1023700083E0898F80E480938602198A188A80918D
:102380009A0290919B02009709F4FDC022E42093E9
:1023900086020E944A26F7C08091860280FF6DC0A7
:1023A0008091CD028F73823109F067C08091CC0299
:1023B000982F907F913508F444C082958F7090E0FB
:1023C0000597880F991F880F991F20918F02E12F81
:1023D000F0E0E817F9078CF5E256FD4F26A9211128
:1023E00005C01093240410928F022BC0213011F4E9
:1023F0001F5FEDCF2230E1F437A93430C9F41093D8
:10240000240420938F0280AD90E0982F882721AD7F
:10241000822B9093910280939002813072E0970713
:1024200010F080E092E09B8B8A8B9D8B8C8B09C097
:1024300037A9332311F0130FCACF1093240420932C
:102440008F0283E0898F8091C40288878091C502C2
:1024500089878091C6028A878091C7028B8781E035
:1024600090E00E944A2682E480938602198A188AA4
:1024700010929B0210929A0286C080E2809386029C
:102480000E945F09198E8BCD8091CD0280FF28C0FC
:1024900024FD26C088899989892B09F0CAC18091B9
:1024A0009A0290919B0201960E944A268091860290
:1024B000982F90619093860220919A0230919B020E
:1024C000232B19F08261809386020E945F0981E0CC
:1024D00090E0998B888B88E0898F1B8E81E10FC1FA
:1024E00085FF1DC08091D20290E0982F88273091FF
:1024F000D302832B40919C0250919D02480F591F9B
:1025000050939D0240939C0240919A0250919B02ED
:10251000BA01681B790B70939B0260939A024091F9
:102520009A0250919B024115510551F024FD08C0BB
:1025300090918602926090938602CA010E944A2678
:102540008091CE0290E0982F88272091CF02820FB1
:10255000911D90939102809390022C893D892817B8
:10256000390710F0892B21F43093910220939002C7
:1025700080919002909191029B8B8A8B8091860230
:10258000837009F456C110929902109298020E9429
:102590005F098091860285FF07C010929902109210
:1025A0009802198E84E1ABC084FF0AC01092990290
:1025B0001092980281E090E0998B888B84E08CCF18
:1025C000209198023091990221153105E1F080FFA8
:1025D00002C0198A188A88899989009781F48A89A2
:1025E0009B898217930720F4909399028093980215
:1025F0008091980290919902998B888B04C0909356
:102600009902809398021B8E809196029091970276
:1026100090939D0280939C028091980290919902E0
:10262000892B59F088899989009739F08896909379
:102630009B0280939A0288E10BC08091860281FF01
:10264000F8C088E290E090939B0280939A0280E128
:102650008093CD025CC08091860280FFEAC0198E13
:1026600080E1809386020E945F09E3C080919A0214
:1026700090919B02009711F00E944A269091CD0202
:102680008091860290FF0BC080FF06C087E0898F93
:102690001A8E198A188A19C086E0898F16C080FFA1
:1026A0001EC085E0898F198A188AC3C080919A025A
:1026B00090919B02009711F00E944A268091CD02D2
:1026C00080FF0DC087E0898F1A8E81E090E00E9424
:1026D0004A2680E1809386020E945F090FC08091A4
:1026E0009A0290919B02892B49F4A3C080918602A3
:1026F00080FF9FC087E0898F1A8E9BC080E1809306
:10270000CD0288E290E090939B0280939A0280E54C
:102710008093CC0288858093C80289858093C90202
:102720008A858093CA028B858093CB028C858093A7
:10273000C4028D858093C5028E858093C6028F85E5
:102740008093C70286E08093B5028C819D8190932F
:10275000C1028093C0028E819F819093C3028093B7
:10276000C2028091190390911A039093B902809349
:10277000B80280911B0390911C039093BB0280933D
:10278000BA02888199819093BD028093BC028A81AC
:102790009B819093BF028093BE02898D84FF05C008
:1027A0001092CF021092CE0205C082E08093CE023A
:1027B0001092CF0280E48093B40280919A029091AB
:1027C0009B029093AE028093AF021092D3021092BC
:1027D000D2021092D1021092D00286E00E94FF0134
:1027E000809590959093D1028093D00285E4809358
:1027F000AC021092AD021092B3021092B20280911C
:10280000890290918A02019690938A0280938902AC
:102810009093B0028093B1021092B7021092B60268
:102820000E948B02809590959093B7028093B60298
:1028300004C010929B0210929A0210928602DF91BD
:10284000CF911F91FF90EF9008950F931F93CF9317
:10285000DF93DC012091A2033091A3032F5F3F4F50
:1028600021158DE7380710F020E030E1522F432F7B
:10287000E6E7F3E080E0843041F0C481D5818F5FEA
:102880003B96C417D507B9F7E9CF3093A30320933C
:10289000A20390E08BE09430D1F0292F30E041E0AA
:1028A000490F829FF001839FF00D1124EA58FC4FDD
:1028B000EF01249604811581012B39F490932404AF
:1028C000309741F480E090E02EC0942FE4CF9093B5
:1028D0002404F8CF8091A2039091A303982789271D
:1028E00098279983888377836683109729F41082C9
:1028F0001182128213820BC08D919C91119791834A
:10290000808312968D919C911397938382838BE0A1
:10291000829FD001839FB00D1124AA58BC4F80E440
:1029200018968C93CF01DF91CF911F910F9108954D
:10293000CF93DF93EC010E948B1A20919A02309181
:102940009B02909182022A32310521F41092830277
:102950009D7F03C01D821C82926090938202DF9152
:10296000CF910C949C02FC01538D448D252F30E0B7
:10297000842F90E0821B930B541710F0CF9608958C
:1029800001970895FC01918D828D981761F0828DD9
:10299000DF01A80FB11D5D968C91928D9F5F9F7393
:1029A000928F90E008958FEF9FEF0895FC01918D35
:1029B000828D981731F0828DE80FF11D858D90E0A2
:1029C00008958FEF9FEF0895FC01918D228D892F3F
:1029D00090E0805C9F4F821B91098F739927089527
:1029E00081E495E00E94E41421E0892B09F420E0C1
:1029F000822F0895FC01848DDF01A80FB11DA35A19
:102A0000BF4F2C91848D90E001968F739927848F0E
:102A1000A689B7892C93A089B1898C9180648C9305
:102A2000938D848D981306C00288F389E02D8081F0
:102A30008F7D80830895EF92FF920F931F93CF9322
:102A4000DF93EC0181E0888F9B8D8C8D981305C0FE
:102A5000E889F989808185FD24C0F62E0B8D10E070
:102A60000F5F1F4F0F731127E02E8C8DE8120CC0E3
:102A70000FB607FCFACFE889F989808185FFF5CF89
:102A8000CE010E94FA14F1CF8B8DFE01E80FF11DEB
:102A9000E35AFF4FF0820B8FEA89FB8980818062C5
:102AA00007C0EE89FF896083E889F98980818064A5
:102AB000808381E090E0DF91CF911F910F91FF9093
:102AC000EF900895CF93DF93EC01888D8823C9F0B0
:102AD000EA89FB89808185FD05C0A889B9898C9127
:102AE00086FD0FC00FB607FCF5CF808185FFF2CFC2
:102AF000A889B9898C9185FFEDCFCE010E94FA1487
:102B0000E7CFDF91CF91089580E090E0892B29F005
:102B10000E94F01481110C94000008953FB7F894BE
:102B200080910D0390910E03A0910F03B0911003BB
:102B300026B5A89B05C02F3F19F00196A11DB11D18
:102B40003FBFBA2FA92F982F8827820F911DA11D53
:102B5000B11DBC01CD0142E0660F771F881F991F90
:102B60004A95D1F708958F929F92AF92BF92CF92DC
:102B7000DF92EF92FF920F931F93CF93DF937C012D
:102B8000EB016C0182E0C80ED11C4701E5E08E0E1E
:102B9000911C00E010E0F60141916F0150E060E00F
:102BA00070E02AE0CE010E94D91E5C01E881F98123
:102BB0000190F081E02D6EE2CE0109958A0D9B1DFA
:102BC000080F191FC814D90431F7F701458150E0E7
:102BD00060E070E02AE0CE010E94D91E800F911FB4
:102BE000DF91CF911F910F91FF90EF90DF90CF90E9
:102BF000BF90AF909F908F9008950E9457291F9289
:102C00000F920FB60F9211242F933F934F935F9320
:102C10006F937F938F939F93AF93BF93EF93FF93A4
:102C200081E495E00E94FA14FF91EF91BF91AF917A
:102C30009F918F917F916F915F914F913F912F91D4
:102C40000F900FBE0F901F9018951F920F920FB606
:102C50000F9211242F938F939F93EF93FF93E09103
:102C60005105F09152058081E0915705F09158058A
:102C700082FD12C0908180915A058F5F8F732091E1
:102C80005B05821751F0E0915A05F0E0EF5BFA4FD7
:102C9000958F80935A0501C08081FF91EF919F919C
:102CA0008F912F910F900FBE0F901F90189590E06D
:102CB000FC01EE53FF4F3491FC01E255FF4F24918C
:102CC000FC01E656FF4FE491EE2309F43BC03323A9
:102CD00039F1333091F038F43130A9F0323001F568
:102CE00084B58F7D12C0373091F03830A1F0343088
:102CF000B9F4809180008F7D03C0809180008F7730
:102D0000809380000DC084B58F7784BD09C0809109
:102D1000B0008F7703C08091B0008F7D8093B000AA
:102D2000F0E0EE0FFF1FE057FF4FA591B4918FB772
:102D3000F894EC91611103C020952E2301C02E2B35
:102D40002C938FBF0895CF93DF9390E0FC01E25561
:102D5000FF4F2491FC01E656FF4F8491882361F1D7
:102D600090E0880F991FFC01EA57FF4FC591D4915D
:102D7000FC01E057FF4FA591B491611109C09FB7C5
:102D8000F8948881209582238883EC912E230BC0B0
:102D9000623061F49FB7F8943881822F8095832345
:102DA0008883EC912E2B2C939FBF06C08FB7F8948D
:102DB000E8812E2B28838FBFDF91CF9108958F92CA
:102DC0009F92AF92BF92CF92DF92EF92FF926B01F0
:102DD0007C010E948E154B015C01C114D104E104F9
:102DE000F104F1F00E948E15DC01CB0188199909DC
:102DF000AA09BB09883E9340A105B10570F321E003
:102E0000C21AD108E108F10888EE880E83E0981E06
:102E1000A11CB11CC114D104E104F10419F7DDCFE8
:102E2000FF90EF90DF90CF90BF90AF909F908F90EA
:102E300008952FB7F8946091090370910A03809167
:102E40000B0390910C032FBF08951F920F920FB6A2
:102E50000F9211242F933F938F939F93AF93BF9320
:102E60008091090390910A03A0910B03B0910C0388
:102E70003091080323E0230F2D3720F40196A11D84
:102E8000B11D05C026E8230F0296A11DB11D209398
:102E900008038093090390930A03A0930B03B09354
:102EA0000C0380910D0390910E03A0910F03B0913C
:102EB00010030196A11DB11D80930D0390930E0385
:102EC000A0930F03B0931003BF91AF919F918F9187
:102ED0003F912F910F900FBE0F901F901895882350
:102EE000E9F0A5E2B4E025E014969C9114979813BC
:102EF0000DC095E0899FF0011124EB5DFB4F8481AB
:102F000014968C931382128214820895992331F0BF
:102F1000299FD0011124AB5DBB4FE6CF08950F93DD
:102F20001F93CF93DF938C01EB0160E08AE00E9456
:102F300057168AE38EBD0DB407FEFDCF0C0F1D1F83
:102F4000C017D10739F01EBC0DB407FEFDCF8EB5FA
:102F50008993F6CF61E08AE0DF91CF911F910F91C5
:102F60000C9457160F931F93CF93DF931F92CDB7F7
:102F7000DEB7182F062F60E08AE049830E945716BB
:102F8000802F8F71812B8EBD49810DB407FEFDCF3F
:102F90004EBD0DB407FEFDCF61E08AE00F90DF91DA
:102FA000CF911F910F910C9457161F93CF93DF93DE
:102FB000182F1076C12FD0E02091000130E0C21709
:102FC000D30789F043E06FE180EA0E94B217AE01B7
:102FD00085E0559547958A95E1F76FE180E80E9475
:102FE000B21710930001DF91CF911F9108951F93A5
:102FF000CF93DF9300D0CDB7DEB7182F69837A83E4
:103000000E94D5174981612F80E40E94B21761E0C8
:10301000610F7A81472F80E40F900F90DF91CF915D
:103020001F910C94B2171F93CF93DF931F92CDB7CC
:10303000DEB7182F69830E94D5174981612F80E47C
:103040000F90DF91CF911F910C94B217CF93DF9324
:10305000C82FD62F60E08AE00E9457168D2F8F71FF
:10306000C82BCEBD0DB407FEFDCF1EBC0DB407FEB0
:10307000FDCFD7FD08C061E08AE00E9457168EB5EB
:10308000DF91CF9108951EBC0DB407FEFDCFF3CFA5
:10309000CF93DF931F92CDB7DEB7682F69830E946D
:1030A000D517698180E00F90DF91CF910C9426189D
:1030B000CF93DF93EB01682F84ED0E941318BE01BC
:1030C00086ED0E94F717CFE0D0E08AEE0E94481804
:1030D00080FF08C06AE070E080E090E00E94DF16A8
:1030E000219799F7DF91CF910895CF93C62FBC0117
:1030F00082E00E94F71760E08AE00E9457168AE794
:103100008EBD0DB407FEFDCFCEBD0DB407FEFDCFC5
:1031100061E08AE0CF910C945716BC0180E00E94D8
:10312000F71760E08AE00E9457168AE38EBD0DB45F
:1031300007FEFDCF1EBC0DB407FEFDCF61E08AE0A7
:103140000E9457168EB50895CF92DF92EF92FF92AC
:103150000F931F93CF93DF936C018B014130510587
:1031600079F4CB010E948D18682FC601DF91CF91B1
:103170001F910F91FF90EF90DF90CF900C947518F6
:10318000EA01C60FD71F7E0181E0E81AF10880E14D
:103190000E94F717B60184E10E94F7170115184045
:1031A00038F4E11488E0F80618F07E0188E0F81A97
:1031B000B70182E10E94F71740E16FE180EA0E94C7
:1031C000B21740E26FE180E80E94B2176FE180E041
:1031D0000E94261885FF07C061E070E080E090E063
:1031E0000E94DF16F3CFDF91CF911F910F91FF90D7
:1031F000EF90DF90CF900895CF92DF92EF92FF9201
:103200000F931F93CF93DF938C01609125047091EE
:1032100026046150784EC12C98E1D92EE5E2F4E005
:1032200080E0C0E0D0E045E09481992349F0499FD7
:10323000900111242B5D3B4FD9012D913C9101C090
:103240009B01E080F1802E193F090280F381E02D7F
:103250002E1B3F0B2017310739F4B5E08B9FE0019F
:103260001124CB5DDB4F49C00217130748F42C151E
:103270003D0530F4489FE0011124CB5DDB4F69012F
:10328000911107C02097C9F5C5E2D4E085E0D82E9A
:103290001EC0499FF0011124EB5DFB4F892FC4CF65
:1032A000EA80FB8028813981E20EF31ED89EE0017E
:1032B0001124CB5DDB4F68817981E616F70639F082
:1032C0004A815B81C7010E94A418F982E8828C813F
:1032D0008111E6CF209125043091260488819981BF
:1032E000281B390B8A819B81281B390B2150384EB2
:1032F0002017310710F480E01AC091E0EAE2F4E010
:1033000022813381232B29F035969F5F9533C1F7B6
:10331000F2CF4A815B8128813981240F351F3183A7
:103320002083138302838C8184839C83892FDF9184
:10333000CF911F910F91FF90EF90DF90CF90089564
:10334000CF92DF92EF92FF920F931F93CF93DF9371
:103350007B018A01690125E0829FC0011124EC01F3
:10336000CB5DDB4F688179816E0D7F1D82E00E940D
:10337000F7170A80DB81C02DCE19DF09CC16DD06D8
:1033800008F4E60160E08AE00E9457168AE78EBDE5
:103390000DB407FEFDCFC8018C0F9D1F081719073C
:1033A00041F0F80121918F012EBD0DB407FEFDCF34
:1033B000F5CF61E08AE00E945716CE01DF91CF91F0
:1033C0001F910F91FF90EF90DF90CF900895EF92B3
:1033D000FF920F931F93CF93DF938B017A018F3F5F
:1033E000D1F025E0829FE0011124CB5DDB4F02C0CC
:1033F000C1E3D5E088819981B801680F791F80E029
:103400000E94F7178A819B81801B910BE816F906B1
:1034100090F4C70110C08091310590913205860F5C
:10342000971F811528E0920718F3BC016F5F774062
:10343000C1E3D5E0E4CFDF91CF911F910F91FF90D1
:10344000EF9008958823A1F090912E05992381F0A3
:103450008F3F29F48091330590913405089595E0CC
:10346000899FF0011124EB5DFB4F828193810895C8
:1034700080E090E0089560912F057091300561150E
:10348000710549F061507109611588E0780728F0ED
:1034900060E070E002C06FEF77E060FF02C0615053
:1034A00071098CE00C94F7170F931F93DB01E42F45
:1034B000A80190E0EF3F09F165E0E69FF0011124DB
:1034C000EB5DFB4F02C0E1E3F5E00190F081E02D00
:1034D0002E0F3F1F65E0689FF001699FF00D1124DA
:1034E000EB5DFB4F80819181B9018A0F9B1F0E9488
:1034F000A4181F910F910C943B1AE0913105F091A3
:103500003205E20FF31FE11568E0F607E0F29F01D4
:103510002F5F3740DFCF8091BC029091BD028F3F7B
:103520002FEF920759F42091BE023091BF022F3F36
:103530003F4F21F486E0EBE3F1E05AC020911903FC
:1035400030911A0328273927409111035091120313
:1035500024233523232B91F46091BE027091BF0286
:1035600020911B0330911C0326273727409113031A
:103570005091140324233523232B89F080911503C4
:103580009091160390930503809304038091170391
:1035900090911803909307038093060308C09093BB
:1035A000050380930403709307036093060320913F
:1035B000040330910503409106035091070380E016
:1035C0009BE001C08F5F883071F1989FF00111245A
:1035D000E35EFC4F608171812617370799F762819E
:1035E00073814617570771F780937503349686E009
:1035F000AEE9B2E001900D928A95E1F786E0E6E34C
:10360000F5E0A4EAB2E001900D928A95E1F788E036
:1036100090E09093AB028093AA0280919A029091DD
:103620009B020E9667C08093750346E050E06FEFF3
:1036300070E08EE992E00E94652986E0EEEBF2E010
:10364000DF01282F1D922A95E9F7E6E3F5E0A4EAC9
:10365000B2E0982F01900D929A95E1F7E6E3F5E03C
:10366000A4EBB2E0982F01900D929A95E1F720918A
:103670000403309105033093C5022093C4022091C6
:103680000603309107033093C7022093C6022091AE
:10369000190330911A033093BB022093BA02209190
:1036A0001B0330911C033093BD022093BC0220E029
:1036B00031E03093B3022093B2023093AD022093F5
:1036C000AC0228E030E03093AF022093AE0280934A
:1036D000B00284E08093B10288E096E09093AB0260
:1036E0008093AA0284ED92E090939D0280939C02C5
:1036F0008AE290E090939B0280939A020895EF9261
:10370000FF920F931F93CF93DF939C01FB011092C5
:10371000750390E08BE0983031F1899F700111249E
:10372000E701C35EDC4F6881798161157105C9F0DD
:103730004A815B8141155105A1F0D9010D911C9180
:1037400011970617170769F412966D917C911397DC
:103750006417750731F490937503D701AF5DBC4FC3
:103760002AC09F5FD8CF90E08BE0983091F0899F7E
:10377000E0011124C35EDC4F48815981452B39F4A7
:103780004A815B81452B19F4909375030AC09F5FB2
:10379000ECCF109203031092020310927503CDE157
:1037A000D3E0D9014D915D916D917C91DE014D93F6
:1037B0005D936D937D9386E001900D928A95E1F77C
:1037C0001A86DF91CF911F910F91FF90EF9008958E
:1037D0009C01AB017093990260939802161617062C
:1037E00054F480919602909197022817390719F0A6
:1037F000B9010C945C290895CF92DF92EF92FF9269
:103800000F931F93CF93DF936C017A018B01C0E07C
:10381000D0E0CE15DF0589F0D8016D918D01D6017C
:10382000ED91FC910190F081E02DC6010995892B65
:1038300011F47E0102C02196ECCFC701DF91CF9138
:103840001F910F91FF90EF90DF90CF900895E1E4EA
:10385000F5E0A089B18982E08C93A485B5851C929E
:10386000A685B7858FEC8C93108EA489B58986E0E8
:103870008C93A289B3898C9180618C93A289B3893E
:103880008C9188608C93A289B3898C9180688C9389
:103890000288F389E02D80818F7D808308950F93C6
:1038A0001F93CF93DF93CDB7DEB7C254D1090FB6C4
:1038B000F894DEBF0FBECDBFFC0182819381A4814D
:1038C000B58123968CAF9DAFAEAFBFAF239721E0FC
:1038D00023962FAF239723964CAD5DAD6EAD7FAD94
:1038E00023974BAB5CAB6DAB7EAB89AF9AAFABAF05
:1038F000BCAF8DA79EA7AFA7B8AB28AB4DA55EA563
:103900006FA578A94FA358A769A77AA72EAB4BA993
:103910005CA96DA97EA949A35AA36BA37CA38B8F35
:103920009C8FAD8FBE8F2AA74FA158A569A57AA5F8
:103930004D8B5E8B6F8B788F2CA349A15AA16BA105
:103940007CA14F87588B698B7A8B89879A87AB8745
:10395000BC870E941917DC01CB0186509F4FAF4FE7
:10396000BF4F80933C0590933D05A0933E05B093D7
:103970003F051092320510923105109234051092D5
:10398000330589E091E0E5E2F4E0DF019C011D925E
:1039900021503040E1F781E098E090932604809335
:1039A000250461E08AE00E94A31661E08AE00E949B
:1039B000571661E08BE00E94A31661E08DE00E9443
:1039C000A31660E08CE00E94A31660E08BE00E94EA
:1039D000571660E08DE00E94571680E58CBD8DB5CE
:1039E00081608DBD4FEF60E08FEF0E94B21762E003
:1039F00070E080E090E00E94DF1662E370E080E01B
:103A000090E00E94DF161092300510922F0500E121
:103A100010E06DE180E00E94261881110AC001507B
:103A2000110939F06AE070E080E090E00E94DF1652
:103A3000F0CF60E070E088E00E94F71760E070E08F
:103A40008CE00E94F7176FEF77E08AE00E94F7178B
:103A500061EB88E30E9413186FE370E388E20E9431
:103A6000F71769EF77EF80E30E94F7176DE070E0DA
:103A700080EC0E94F71742E362EC80E80E94B217E4
:103A800062E17CE086EC0E94F71762E184EC0E9420
:103A900013186CED75E08AEC0E94F7176091020133
:103AA00084EE0E9413186091030185EE0E941318A2
:103AB0006091040182EE0E9413186091050183EE6B
:103AC0000E9413186091060180EE0E941318609105
:103AD000070181EE0E94131860E071E080E10E940E
:103AE00058188FE10E94D51740EC6BE180E80E94E6
:103AF000B21744E06FE180E80E94B21766E774E015
:103B000084E10E94581882E70E9448188F3F09F00C
:103B1000B6C010922E0580910201809336058091E7
:103B200003018093370580910401809338058091CB
:103B30000501809339058091060180933A058091B3
:103B4000070180933B0580E0E82FF0E0EE0FFF1FB8
:103B5000E45EFB4F118210828F5F8430A9F780E012
:103B60009EE1989FF0011124EC55FC4F118E8F5F60
:103B70008430B9F780E094E09093A3038093A2038C
:103B800080E09BE0989FF0011124EA58FC4F1582D9
:103B900014828F5F8430B1F78093240410927503F0
:103BA0009BE080917503883068F4989FF0011124A0
:103BB000E35EFC4F10821182128213828F5F80932A
:103BC0007503EFCF7D894E896F8951E05A8B8F85C0
:103BD0009889A989BA898B839C83AD83BE838B85A1
:103BE00090E0982F88272C85822B98278927982763
:103BF000298530E0322F2227EA852E2B32272327F2
:103C0000322730931A032093190390931C03809357
:103C10001B03842F90E0972B942789279827909354
:103C2000160380931503862F90E0916090931803FC
:103C3000809317038FEF9FEF9093120380931103EC
:103C40008FEF90E090931403809313035E838B8136
:103C50009C81AD81BE818093280690932906A09314
:103C60002A06B0932B06CE5BDF4F0FB6F894DEBF6B
:103C70000FBECDBFDF91CF911F910F91089580931B
:103C80002E0549CF1F920F920FB60F9211242F933A
:103C90003F934F935F936F937F938F939F93AF93D4
:103CA000BF93EF93FF9380914F0690915006A091A0
:103CB0005106B0915206892B8A2B8B2B59F180919A
:103CC0004E06E0914C06F0914D0690818927808345
:103CD00080914F0690915006A0915106B0915206E6
:103CE000181619061A061B060CF03DC080914F06E7
:103CF00090915006A0915106B09152060197A109EA
:103D0000B10980934F0690935006A0935106B0934B
:103D1000520629C080910101E6EDF0E0E4919FEFA9
:103D200090930101E130B9F098F0E230C9F490913C
:103D300070009D7F9093700091E09093B0009091FF
:103D4000B100987F94609093B1001092B30008C0C6
:103D500010926E0005C090916F009D7F90936F0050
:103D600060E00E945716FF91EF91BF91AF919F9134
:103D70008F917F916F915F914F913F912F910F9014
:103D80000FBE0F901F9018956115710579F0FB011A
:103D900001900020E9F73197AF01461B570BDC017A
:103DA000ED91FC910280F381E02D099480E090E098
:103DB00008954F925F926F927F92EF92FF920F93CE
:103DC0001F93CF93DF93CDB7DEB7A1970FB6F894CB
:103DD000DEBF0FBECDBF7C01FA01CB0119A222309C
:103DE00008F42AE08E010F5D1F4F422E512C612CEA
:103DF000712CBF01A30192010E940127F901CA01A0
:103E0000015011096A3014F4605D01C0695CD80189
:103E10006C93232B242B252B61F7B801C7010E943B
:103E2000C41EA1960FB6F894DEBF0FBECDBFDF91C2
:103E3000CF911F910F91FF90EF907F906F905F90C7
:103E40004F900895CF92DF92EF92FF92CF93DF933E
:103E50006C01990FEE08FF08F7FE1CC0E0914105C8
:103E6000F09142050190F081E02D6DE281E495E052
:103E70000995EC0144275527BA014C195D096E09D3
:103E80007F092AE081E495E00E94D91E7C01EC0EB6
:103E9000FD1E08C02AE0B701A60181E495E00E945A
:103EA000D91E7C0162E971E081E495E00E94C41EA4
:103EB0008E0D9F1DDF91CF91FF90EF90DF90CF90FF
:103EC0000895CF93DF93CDB7DEB7C654D1090FB6AF
:103ED000F894DEBF0FBECDBF789484B5826084BDF8
:103EE00084B5816084BD85B5826085BD85B58160FE
:103EF00085BD80916E00816080936E00109281007C
:103F00008091810082608093810080918100816036
:103F100080938100809180008160809380008091F7
:103F2000B10084608093B1008091B0008160809383
:103F3000B00080917A00846080937A0080917A004A
:103F4000826080937A0080917A00816080937A0009
:103F500080917A00806880937A001092C10010925C
:103F60002206109223061092240610922506109223
:103F7000E0051092E1051092E2051092E3050E941F
:103F800019176B017C014B015C0128EB820E2BE0C1
:103F9000921EA11CB11C0E9419176C157D058E057F
:103FA0009F0528F086169706A806B906A0F781E4B3
:103FB00095E090932106809320060E94271C0E9482
:103FC00019176093E0057093E1058093E2059093E3
:103FD000E30563E871E080912006909121060E943C
:103FE000C41E0E9419176B017C014B015C013AE071
:103FF000830E911CA11CB11C0E9419176C157D0524
:104000008E059F0528F086169706A806B906A0F724
:1040100081E08093F40585E791E09A83898380911C
:10402000340690913506A0913606B09137068B8301
:104030009C83AD83BE83CE0101960E944F1C68E233
:1040400073E288E396E00E946E010E94271C06E35B
:1040500011E0780161E0F70181917F010E94A316D0
:10406000FBE3EF16F1E0FF06A9F760E0F8018191AC
:104070008F010E945716F1E00B331F07B1F79E0125
:10408000235C3F4F23963FAF2EAF2397CE014D9633
:1040900025969FAF8EAF25971A8219821E821D82A8
:1040A00018861F821C821B821C861B861E861D860C
:1040B000188A1F86CE0101960E94D10A1A86198697
:1040C000E2E0F0E0F887EF8388E396E00E94E805FD
:1040D0001C01181619060CF075C565E971E081E43C
:1040E00095E00E94C41E62E971E081E495E00E94BF
:1040F000C41E6CED71E081E495E00E94C41EC10114
:104100000E94221F93E0892E912C31E0231A31085E
:1041100008F4F9C388E396E00E949700F82E2F85F3
:1041200038898B859C856D857E85121613067CF4F7
:104130009B012F5F3F4F3E872D87FC01E60FF71F46
:10414000F0828F8598890197988B8F871AC06F5E50
:104150007F4F0E948D289C878B87009781F02D854B
:104160003E85A9014F5F5F4F5E874D87FC01E20FDF
:10417000F31FF08220E130E0388B2F8702C0988651
:104180008F82E985FA85E730F10508F0A6C3EC5C7B
:10419000FF4F0C945A273FE2F3129FC381E090E057
:1041A00003C1F1109AC3CB84DC8489819A810E9477
:1041B000F527F60101900020E9F7CF018C199D0940
:1041C0000E9460278C01009719F41A82198205C099
:1041D000B6010E9475291A83098318861F82CE01B1
:1041E00001960E94D10A22E030E075C33CE2F3124E
:1041F00074C39A86898686C0FF2091F18EE090E094
:104200000E9460278C0122E030E0FC013183208392
:104210008F2D0F2C000C990B9583848313821282AF
:104220006D817E816F5F7F4F660F771F8B819C81D1
:104230000E948D28009719F498868F8215C09C8360
:104240008B832D813E81A901440F551FFC01E40F92
:10425000F51F118300832F5F3F4F3E832D8304C0E2
:1042600084E090E09A8789872D813E81C9018095FD
:10427000909583709927009711F484E090E0820F65
:10428000931F2D853E852817390709F026C3CE01D7
:1042900001960E94D10AE5E0F0E0FA87E9871DC3A4
:1042A000498C5A8C6B8C7C8C8D819E8108171907E8
:1042B0000CF0B3C0B801CE0101960E94EE0A6C0169
:1042C000009729F00E94300BC6010E94F5278EE06E
:1042D00090E00E946027FC011182108289E690E044
:1042E0009583848324E030E033832283468257829F
:1042F00060867186000F111FAB81BC81A00FB11FBA
:10430000ED93FC93CE0101960E94D10AE6C20F5FA5
:104310001F4F8D819E81081719070CF0DEC2B8016E
:10432000CE0101960E94EE0AFC01208131812230EB
:10433000310569F7C480D580F6E6CF16D10409F4BB
:1043400085C0C4F183E7C816D10409F03EC0F1105E
:10435000C4C2CB84DC848D819E81081719070CF0C0
:104360000CC2B801CE0101960E94EE0A5C010097D2
:1043700029F00E94300BC5010E94F5278EE090E0E5
:104380000E9460275C01B6010E94BD0BF50180818F
:104390009181039709F045C298868F82CE010196DC
:1043A0000E94D10A86E090E09A87898796C200E051
:1043B00010E0AFCF32E6C316D10409F4EBC144E6F6
:1043C000C416D10409F49AC088C294E7C916D1046E
:1043D00009F40BC1E9E6CE16D10409F07EC28D8541
:1043E0009E85049709F079C2EB85FC8580819181D7
:1043F000A281B38189AF9AAFABAFBCAFDE01DD96CE
:10440000FE01799625962EAD3FAD2597E217F3076D
:1044100009F446CF8E918193F5CF0817190709F05B
:10442000A7C18EE090E00E9460276C01FC01118220
:10443000108229E630E03583248384E090E0938382
:1044400082834682578260867186B6C08D859E853E
:10445000049709F042C2EB85FC8580819181A2819D
:10446000B38189AF9AAFABAFBCAFDE01DD96FE0181
:10447000799625968EAD9FAD2597E817F90719F027
:104480008E918193F6CF498C5A8C6B8C7C8C8D816C
:104490009E8108171907ECF4B801CE0101960E941D
:1044A000EE0A6C01009729F00E94300BC6010E94B1
:1044B000F5278EE090E00E946027FC0111821082B7
:1044C00026E630E03583248384E090E09383828382
:1044D00056C00817190709F04BC18EE090E00E9402
:1044E00060276C01FC011182108226E630E03583E2
:1044F000248384E090E0938382835AC08D859E85D7
:10450000089709F0EAC1EB85FC8588E0DE01599641
:1045100001900D928A95E1F7DE015D96FE01F99614
:1045200023968EAD9FAD2397E817F90719F08E916A
:104530008193F6CF49AC5AAC6BAC7CAC8D819E813B
:10454000081719070CF5B801CE0101960E94EE0A72
:104550006C01009729F00E94300BC6010E94F527DC
:104560008EE090E00E946027FC011182108224E01E
:1045700030E03383228386E690E09583848346820D
:10458000578260867186B6CE0817190709F0F0C009
:104590008EE090E00E9460276C01FC011182108285
:1045A00024E030E03383228386E690E095838483A1
:1045B0004682578260867186B8016F5F7F4F660FB3
:1045C000771F8B819C810E948D28009709F4BCC0C5
:1045D0009C838B832D813E81A901440F551FFC01D3
:1045E000E40FF51FD182C082BEC0AD84BE8438E026
:1045F000A316B10409F071C1EB85FC8588E0DE01EA
:10460000D99601900D928A95E1F7CE01C9960E9444
:10461000B40A69AF7AAF8BAF9CAFCE01CD960E9442
:10462000B40A21966CAF7DAF8EAF9FAF219788E023
:10463000FE01F996DE01D19601900D928A95E1F77F
:104640008D819E81081719070CF03FC0B801CE017B
:1046500001960E94EE0A6C01009729F00E94300B2F
:10466000C6010E94F52788E0FE01F196DE01599609
:1046700001900D928A95E1F78EE090E00E9460270C
:1046800028E0FE017996DE01999601900D922A9517
:10469000E1F7FC011182108224E730E035832483A6
:1046A00028E030E033832283FE01B996DC011696C0
:1046B00001900D922A95E1F7000F111FEB81FC810B
:1046C000E00FF11F918380831DCE0817190709F0B1
:1046D0004FC088E0FE01F196DE01919601900D92A7
:1046E0008A95E1F788E0FE01B196DE0159960190C6
:1046F0000D928A95E1F78EE090E00E9460273C01E0
:1047000088E0FE017996DE01519601900D928A951E
:10471000E1F7F30111821082D582C482B382A282B2
:1047200088E0FE017196D301169601900D928A954C
:10473000E1F7B8016F5F7F4F660F771F8B819C8118
:104740000E948D28009719F498868F82DBCD9C8378
:104750008B832D813E81A901440F551FFC01E40F7D
:10476000F51F718260822F5F3F4F3E832D83CACD3C
:1047700024E030E038872F83C5CD0817190709F0EA
:1047800089C08EE090E00E9460278C01B6010E94F3
:10479000BD0B5CC0AD84BE8495E0A916B1040CF4D9
:1047A0009CC0CB84DC84F60180819181A281B3819D
:1047B000898F9A8FAB8FBC8FCE0149960E94B40A25
:1047C0002B013C01C501BB0CAA0BBB0BB301A20121
:1047D0004C5F5F4F6F4F7F4F84179507A607B70752
:1047E00009F07BC0F4E0CF0ED11C8D819E810817AB
:1047F000190704F5B801CE0101960E94EE0A5C018A
:10480000009729F00E94300BC5010E94F5278EE029
:1048100090E00E9460275C01A201B6010E94430B58
:10482000B5CD000F111FEB81FC81E00FF11FB182AC
:10483000A082B4CD0817190769F58EE090E00E94B8
:1048400060278C01A201B6010E94430BF801808110
:104850009181039709F4A0CD6D817E816F5F7F4FB9
:10486000660F771F8B819C810E948D28009709F429
:1048700093CD9C838B832D813E81A901440F551FCD
:10488000FC01E40FF51F118300832F5F3F4F3E8330
:104890002D8384CD24E030E038872F837FCD0D81B8
:1048A0001E810150110917FD18C0B801CE010196F3
:1048B0000E94EE0AFC0120813181232B91F7828135
:1048C000938191958195910983709927009709F0BB
:1048D000D8CC25E030E03A8729876CEA71E081E4A2
:1048E00095E00E94C41E4F2D50E060E070E02AE089
:1048F00081E495E00E94D91E62E971E081E495E0CF
:104900000E94C41E02CCCE0101960E94050B269681
:104910008FAF2697811152C168EC71E081E495E078
:104920000E94C41E8D819E810E94221F65EE71E04F
:1049300081E495E00E94C41ECE0101960E94050B01
:1049400090E00E94221F69EF71E081E495E00E94EF
:10495000C41E09811A816DE771E0C8010E946C29AB
:10496000892B09F414C18DE7E82E81E0F82EF701B8
:104970003081332309F4FEC0F8012081222309F499
:10498000F9C02A3209F0B6C05701F7016F018191D1
:104990008F3229F44801F80180E090E008C08111CD
:1049A000F5CFF8CF442339F04A3209F401969F013C
:1049B00041914F32B9F73901E1E06E1A7108F1E027
:1049C000CF1AD1088130910599F00297A9F179C0E9
:1049D000B601C3010E94F50B892B09F4E8C01F7DC5
:1049E0001D3559F0F1E06F1A710821E0C21AD108A3
:1049F000F30110811A3261F76BC0F30180818F7D62
:104A00008B3581F321E0621A7108F7CFB601C3013B
:104A100027962FAF27970E94F50B27962FAD279744
:104A2000892B09F4C4C02F7D2D3559F0F1E06F1AA0
:104A3000710821E0C21AD108F30120812A3231F72E
:104A400009C0F30180818F7D8B3581F3F1E06F1A0E
:104A50007108F7CFFFEFCF1ADF0A130121E0221A06
:104A60003108EC14FD0408F0A2C0310131E0C31A92
:104A7000D1082601F30140814A3261F0B201C3013D
:104A800027964FAF27970E94F50B27964FAD279794
:104A9000892B21F46016710621F71AC04F7D4D3520
:104AA00049F4F30180818F7D8B3521F041E0641A58
:104AB0007108F7CFF1E06F1A710821E0421A51082E
:104AC000D9CFB701C8010E941F0C892B09F46FC010
:104AD0008401F40181914F018F3211F08111F8CFDF
:104AE0007501F50181915F018F3209F440CF811189
:104AF000F7CF3DCF3A3291F4F8018F0181918F3297
:104B000011F4F70106C08111F8CFFBCF882309F417
:104B10002ECF7F0181918F32C9F729CFB701C8010C
:104B200027962FAF27970E94F50B27962FAD279733
:104B30000097E9F12B3559F4C801FC010196208159
:104B40002D35D9F78C01FFEFEF1AFF0A10CF2B3765
:104B500059F49801F9012F5F3F4F40814D37D1F74C
:104B60008901E80EF91E03CF0F5F1F4F2FEFE21AE6
:104B7000F20AFDCEF8018081811119C081E090E038
:104B8000332311F080E090E08260039781F46AE1C2
:104B900072E081E495E00E94C41E62E971E081E464
:104BA00095E00E94C41E21E026962FAF26972696F8
:104BB0003FAD2697832F90E00E94221F88E396E066
:104BC0000E94110D89819A810E94F52718861F8203
:104BD00000E010E08D819E810817190784F4B80168
:104BE000CE0101960E94EE0A7C01009729F00E94F6
:104BF000300BC7010E94F5270F5F1F4FEBCF8B8152
:104C00009C810E94F5271C821B821E821D821A86AF
:104C10001986CE0101960E94D10A8B859C850E943F
:104C2000F5270E94841538CAFC012381260F2093A2
:104C30008E02A72FBB2792819A0F90938D0231810C
:104C400030938C02408140938B02E92FF0E0EA1709
:104C5000FB0748F481E0830F80938C02811103C02D
:104C60004F5F40938B0230E077272617370788F491
:104C70009F5F90938D0291110CC080918C028F5F89
:104C800080938C02811105C080918B028F5F80938D
:104C90008B020895CF93DF93C0918702D091880251
:104CA000BC01CE0108960E941426EBE8F2E0808158
:104CB00088878181898782818A8783818B87DF9139
:104CC000CF910895CF93DF93E3E5F6E0C5E7D1E018
:104CD000D183C0831282138214821582E1E4F5E04D
:104CE0001382128288EE93E0A0E0B0E08483958383
:104CF000A683B78385E491E09183808385EC90E07F
:104D00009587848784EC90E09787868780EC90E095
:104D1000918B808B81EC90E0938B828B82EC90E086
:104D2000958B848B86EC90E0978B868B118E128E00
:104D3000138E148EEEEDF5E0168217821086118622
:104D4000128613861486158616861786108A118A8F
:104D5000128A138A148A158AE9E5F6E0D183C083A2
:104D60001282138214821582EFE5F6E0D183C083AC
:104D70001282138214821582E8EBF6E0D183C0839D
:104D80001282138214821582E6E2F6E0D183C08398
:104D9000128213821482158284EA96E00E94E7014F
:104DA000EEEBF6E0D183C083128213821482158267
:104DB000ECE2F6E0D183C083128213821482158262
:104DC000E4ECF6E0D183C083128213821482158250
:104DD000EAECF6E0D183C08312821382148215823A
:104DE00088E396E00E94E701E2E3F6E0D183C08326
:104DF0008AE082831382148287E38583DF91CF91D7
:104E00000895A1E21A2EAA1BBB1BFD010DC0AA1F0B
:104E1000BB1FEE1FFF1FA217B307E407F50720F023
:104E2000A21BB30BE40BF50B661F771F881F991F9E
:104E30001A9469F760957095809590959B01AC01E7
:104E4000BD01CF0108952F923F924F925F926F92D2
:104E50007F928F929F92AF92BF92CF92DF92EF920A
:104E6000FF920F931F93CF93DF93CDB7DEB7CA1B8B
:104E7000DB0B0FB6F894DEBF0FBECDBF09942A88B6
:104E8000398848885F846E847D848C849B84AA845E
:104E9000B984C884DF80EE80FD800C811B81AA81EB
:104EA000B981CE0FD11D0FB6F894DEBF0FBECDBFB6
:104EB000ED010895EE0FFF1F0590F491E02D099488
:104EC000CF93DF938230910510F482E090E0E0917F
:104ED000D206F091D30620E030E0C0E0D0E0309779
:104EE00011F14081518148175907C0F048175907FF
:104EF00061F482819381209719F09B838A832BC070
:104F00009093D3068093D20626C02115310519F05F
:104F10004217530718F49A01BE01DF01EF01028026
:104F2000F381E02DDCCF2115310509F1281B390B68
:104F30002430310590F412968D919C911397611550
:104F4000710521F0FB019383828304C09093D30603
:104F50008093D206FD01329644C0FD01E20FF31F9B
:104F600081939193225031092D933C933AC0209123
:104F7000D0063091D106232B41F420910A013091C3
:104F80000B013093D1062093D00620910801309177
:104F900009012115310541F42DB73EB740910C01AF
:104FA00050910D01241B350BE091D006F091D106F4
:104FB000E217F307A0F42E1B3F0B2817390778F0F0
:104FC000AC014E5F5F4F2417350748F04E0F5F1F4F
:104FD0005093D1064093D0068193919302C0E0E0B4
:104FE000F0E0CF01DF91CF9108950F931F93CF93FE
:104FF000DF93009709F48CC0FC0132971382128270
:105000000091D2061091D3060115110581F420817B
:105010003181820F931F2091D0063091D10628173D
:10502000390779F5F093D106E093D00671C0D80125
:1050300040E050E0AE17BF0750F412962D913C911E
:105040001397AD012115310509F1D901F3CF9D0168
:10505000DA013383228360817181860F971F821763
:10506000930769F4EC0128813981260F371F2E5FE1
:105070003F4F318320838A819B8193838283452B99
:1050800029F4F093D306E093D20642C01396FC9322
:10509000EE931297ED01499159919E01240F351F0E
:1050A000E217F30771F480819181840F951F0296B6
:1050B00011969C938E938281938113969C938E93E9
:1050C0001297E0E0F0E0D80112968D919C91139731
:1050D000009719F0F8018C01F6CF8D919C91980101
:1050E0002E5F3F4F820F931F2091D0063091D10643
:1050F0002817390769F4309729F41092D3061092D3
:10510000D20602C0138212821093D1060093D006F9
:10511000DF91CF911F910F910895A0E0B0E0E3E9F6
:10512000F8E20C942727EC01009721F4CB010E94B0
:105130006027B8C0FC01E60FF71F9C01225031091F
:10514000E217F30708F4ACC0D9010D911C91119737
:1051500006171707B0F00530110508F49FC0C80105
:1051600004978617970708F499C002501109061B87
:10517000170B019311936D937C93CF010E94F52738
:105180008DC05B01A01AB10A4C01800E911EA09146
:10519000D206B091D30640E050E0E12CF12C1097FC
:1051A00009F44AC0A815B905D1F56D907C90119706
:1051B000630182E0C80ED11CCA14DB0480F1A30194
:1051C0004A195B096A0182E0C80ED11C1296BC9094
:1051D00012971396AC91B5E0CB16D10440F0B28291
:1051E000A38351834083D9016D937C930AC00E5FE2
:1051F0001F4FC301800F911FF90191838083EB2D15
:10520000FA2FE114F10431F0D7011396FC93EE93D9
:10521000129744C0F093D306E093D2063FC08D911D
:105220009C9111974817590708F4AC017D0112961B
:105230000D90BC91A02DB3CF8091D0069091D10656
:1052400088159905E1F446175707C8F480910801BD
:1052500090910901009741F48DB79EB740910C01E0
:1052600050910D01841B950BE817F907C8F4F093D2
:10527000D106E093D006F901718360830FC0CB01A2
:105280000E9460277C01009759F0A801BE010E948E
:105290005C29CE010E94F527C70104C0CE0102C0DF
:1052A00080E090E0CDB7DEB7EEE00C94432781E0DC
:1052B00090E0F8940C948A29FB01DC0102C0019073
:1052C0000D9241505040D8F70895DC0101C06D9314
:1052D00041505040E0F70895FB01DC018D910190B1
:1052E00080190110D9F3990B0895FB01DC0101909D
:1052F0000D920020E1F70895FB01DC014150504080
:1053000030F08D910190801919F40020B9F7881BB5
:08531000990B0895F894FFCFFA
:10531800FFFFDEADBEEFFEED0000D406800000000A
:105328000000B4002501F900110DDE05970068059D
:105338006E01CA009401F80578063D01E80590055C
:10534800F100850C750C09070F080EFFFFFFFFFF22
:10535800FF000000001B15FC1BB3146215E414C207
:1053680014D61400000000FD15FC1BF900F800FD20
:1053780015FD15FD1500000000FD15FC1BF900F8D2
:105388000000000000B31500000000FD152F746533
:10539800737400564D4450565F317C315F564D440E
:1053A80050560D0A00736F6D657468696E672069E1
:1053B8006E206D61696E206C6F6F7000726561643C
:1053C800696E6720756470207061636B6574207303
:1053D800697A652069732000526F7574696E672059
:1053E8006E6F772C2062756E646C652073697A65C0
:1053F800206973200062756E64656C206861732093
:105408006572726F723F202000726F7574696E67E3
:1054180020746865206D6573736167652C207265FB
:1054280073756C742069733A2000726563656976D8
:10543800656420612074657374206D65737361679A
:025448006500FD
:00000001FF
